{
  "contractName": "Pineapple",
  "abi": [
    {
      "constant": true,
      "inputs": [],
      "name": "getApple",
      "outputs": [
        {
          "name": "",
          "type": "string"
        },
        {
          "name": "",
          "type": "uint256"
        }
      ],
      "payable": false,
      "stateMutability": "view",
      "type": "function"
    },
    {
      "constant": false,
      "inputs": [
        {
          "name": "_baz",
          "type": "string"
        },
        {
          "name": "_qux",
          "type": "uint256"
        }
      ],
      "name": "setApple",
      "outputs": [],
      "payable": false,
      "stateMutability": "nonpayable",
      "type": "function"
    },
    {
      "anonymous": false,
      "inputs": [
        {
          "indexed": false,
          "name": "baz",
          "type": "string"
        },
        {
          "indexed": false,
          "name": "qux",
          "type": "uint256"
        }
      ],
      "name": "Pine",
      "type": "event"
    }
  ],
  "bytecode": "0x6060604052341561000f57600080fd5b6103778061001e6000396000f300606060405263ffffffff7c0100000000000000000000000000000000000000000000000000000000600035041663143fe5a5811461004757806339e7f4de146100d957600080fd5b341561005257600080fd5b61005a61012e565b6040518080602001838152602001828103825284818151815260200191508051906020019080838360005b8381101561009d578082015183820152602001610085565b50505050905090810190601f1680156100ca5780820380516001836020036101000a031916815260200191505b50935050505060405180910390f35b34156100e457600080fd5b61012c60046024813581810190830135806020601f8201819004810201604051908101604052818152929190602084018383808284375094965050933593506101e092505050565b005b61013661029e565b600080600154818054600181600116156101000203166002900480601f0160208091040260200160405190810160405280929190818152602001828054600181600116156101000203166002900480156101d15780601f106101a6576101008083540402835291602001916101d1565b820191906000526020600020905b8154815290600101906020018083116101b457829003601f168201915b50505050509150915091509091565b60008280516101f39291602001906102b0565b5060018190557f45a448269b7f12c1346175a82ba752065735c52e0d1ad2b9fce5bd8f7377666782826040518080602001838152602001828103825284818151815260200191508051906020019080838360005b8381101561025f578082015183820152602001610247565b50505050905090810190601f16801561028c5780820380516001836020036101000a031916815260200191505b50935050505060405180910390a15050565b60206040519081016040526000815290565b828054600181600116156101000203166002900490600052602060002090601f016020900481019282601f106102f157805160ff191683800117855561031e565b8280016001018555821561031e579182015b8281111561031e578251825591602001919060010190610303565b5061032a92915061032e565b5090565b61034891905b8082111561032a5760008155600101610334565b905600a165627a7a7230582028b602e1363c694c82c93a22b708c97e8573fcf14531dc104d0fe9b35a7e23be0029",
  "source": "pragma solidity ^0.4.17;\n\ncontract Pineapple {\n    \n  string foo;\n  uint bar;\n\n  event Pine(\n    string baz,\n    uint qux\n  );\n\n  function setApple(string _baz, uint _qux) public {\n    foo = _baz;\n    bar = _qux;\n    Pine(_baz, _qux);\n  }\n\n  function getApple() view public returns (string, uint) {\n    return (foo, bar);\n  }\n   \n}\n",
  "sourcePath": "/Users/avandepoel/code/poly/ethereum-event-listener/contracts/Pineapple.sol",
  "schemaVersion": "1.0.0",
  "updatedAt": "2017-12-11T13:23:34.311Z"
}